S02A0000666C6173686C6F616465725F5072696D65616C7068612F666C6173686C6F616465722E737265635F
S31514700000AAAA55552900701410017014000008100E
S315147000108C1C00009C1D7014901C08103404000075
S31514700020C820081014180000F8B5274B00AF83F3D6
S31514700030098883F308882548254E2649264A274D6C
S31514700040DFF8BCC0264C4FF0FF3313603360254A7B
S3151470005003600B602449CCF80030244E2B60236067
S31514700060234D43612348244B08601360B54210D264
S31514700070D5E900100C3555F8044C0B46002CF5D008
S31514700080401A1A681A5004335A1A9442F9D8B54257
S31514700090EED31A4B9D4214D205F1080607339B1BF7
S315147000A023F0070310351D44002456E90201034654
S315147000B021B11C6004331A1A9142FAD80836AE422A
S315147000C0F3D100F021F800BFF8FF011088E200E0C8
S315147000D084E200E08CE200E080E200E094E200E06A
S315147000E098E200E03C0000105800001020007014D4
S315147000F0080070146D1408108514081028007014F4
S3151470010090E200E0FFFFFFFF5FF800F0B1150810F2
S3151470011010B5054C237833B9044B13B10448AFF3B7
S3151470012000800123237010BDC82008100000000041
S315147001308C1C081008B5034B1BB103490348AFF365
S31514700140008008BD00000000CC2008108C1C08101C
S3151470015008B5692000F0D0F8014B186008BD00BFCF
S3151470016040350810102841D8DFE800F00C0F111B29
S315147001702640292C2F32404034373A3D090004204A
S3151470018000F074B84FF40040704719487047194B13
S315147001901948D3F82C3103F00703042B08BF002039
S315147001A07047144B154AD3F82C31134803F00703D0
S315147001B0042B08BF10467047114B18687047114BC3
S315147001C018687047104B186870470F4B586870470B
S315147001D000F01CB8002000F049B8012000F046B8B1
S315147001E0022000F043B8032000F040B80020704796
S315147001F0001BB7000030044040787D0180F0FA028D
S315147002008C1B0810901B0810E420081030B5154D7F
S315147002106C6C83B0C4F30360FFF7A4FF124B0193A5
S315147002202B6C13F0010319D002ABC4F301211944DA
S31514700230A20942EAD41211F8041CC4F30133C4F3AC
S31514700240074401330134B0FBF3F0D3075CBF4900A4
S31514700250B4FBF1F400FB04F003B030BD184603B0E0
S3151470026030BD00BF000005400102040838B5830094
S3151470027003F1804303F5A0230446986C9D6CC20762
S3151470028054BFC0F304601120FFF76CFF034B1B5D62
S3151470029003EA95030133B0FBF3F038BD781A0810EE
S315147002A01B2802D91120FFF75DBF054B800003444C
S315147002B05868C307F6D4C0F30460FFF753BF00BF82
S315147002C058000540002914BF032101210AB141F0D9
S315147002D00401022B08BF41F02001B0F5A17F27BF9E
S315147002E0A0F59170024B034B203043F830107047D1
S315147002F00020054000100540B0F5A17F2BBF114BAF
S31514700300114BA0F5917200F1200210B553F83240DA
S3151470031014F0010314D00D4B0A221988814202D8A5
S315147003205988814203D206331A791C2AF5D110469C
S31514700330FFF7B6FF14F0E00F00D110BD400810BDE2
S31514700340184610BD0020054000100540801A08108C
S3151470035001231A4610B5194604466720FFF7B2FFF3
S3151470036001220723C4F880202360236813F007033F
S31514700370FBD1084A2260084863624FF0FF324FF48B
S31514700380C87162646261E064C4F880102361E360CA
S3151470039010BD00BF1000000210000F1010B483B00F
S315147003A041F00041322400948262C162009B013B89
S315147003B044F2506200938BB1C36A002B0EDA009B21
S315147003C0DB074CBF01940192019B013B012B0193F6
S315147003D0FADC009B013B0093002BEDD100980028AA
S315147003E0CCBF0020012003B05DF8044B704700BFEA
S315147003F0036B0B60436B4B60836B8B60C36BCB600F
S31514700400704700BF70B5B1FBF2F5836802356D089D
S31514700410AB4201D10369B3B904460026066132466C
S31514700420C6600949FFF7BAFF3246A56006492046E9
S31514700430FFF7B4FF01233246236120460249BDE813
S315147004407040FFF7ABBF70BD00202000036843F007
S315147004500203036003689B07FCD44FF0FF334364B5
S31514700460704700BF2DE9F04F046844F00604046029
S31514700470046814F00404FBD143B3B3F5805F1D46CE
S31514700480DFF87090DFF870B028BF4FF480554D6068
S31514700490A3EB05088A6001F1100A02F58052260151
S315147004A0B8F5805F04F10105434601EB060749F080
S315147004B0020E28BF4FF4805301EB051CB8F1000FE0
S315147004C008D149F00403C7F80CA08B51C0F88810F2
S315147004D0BDE8F08FC7F80CA0A8EB030841F806E046
S315147004E00AF1100A7B612C46CCF80820D94602F51D
S315147004F08052D4E718000080100000802DE9F04F68
S3151470050087B011F4000F0C460746019205930CBF81
S315147005104FF001084FF002082BB911F0405F0CBF71
S3151470052008230423059314F4002540F0E380059BF7
S31514700530844E180755BF43F4314343F43F4343F095
S31514700540420343F0C203002D4FEAD41505F4004557
S3151470055014BF4FF408510021294305935FFA84FAA6
S31514700560220A230B41EA0A0102F4806203F48053CF
S3151470057045F000450391134341F0800145F077052A
S31514700580049102934BF6C2790D20FFF789FE3368F6
S315147005900146D3F848233846FFF734FF33684FF0D3
S315147005A0FF32D3F860337A6405A89847B8F1020F0E
S315147005B004F0405B58D0BBF1005F029B00F08B8057
S315147005C0BBF1000F40F0AF800399019A194341F0C3
S315147005D00041BAF1070F08BF41F400513846FFF7CE
S315147005E0DDFE336810F10008D3F8643318BF4FF08A
S315147005F00108984710EA090F40F09980430708D507
S31514700600BBF1005F6BD0BBF1405F68D0BBF1805F0C
S3151470061065D0B8F1000FB7D1404607B0BDE8F08F7A
S315147006209847034613EA090F4FF00D0040F088807F
S315147006305A0708D5BBF1005F51D0BBF1405F4ED05D
S31514700640BBF1805F4BD0FFF72BFE33680146D3F8AE
S3151470065048233846FFF7D6FE33684FF0FF32D3F887
S3151470066060337A6405A898473368B3F844232946E7
S3151470067012043846FFF792FE3368D3F864330028B1
S31514700680CED1984710EA090F8046C5D110F0040FE1
S3151470069034D004F0405BBBF1005F4AD0BBF1405FCD
S315147006A047D0BBF1805F44D00D20FFF7F9FD336856
S315147006B00146D3F848233846FFF7A4FE33684FF043
S315147006C0FF32D3F860337A6405A89847BBF1005F9C
S315147006D0029B7FF475AF43F04003049975E7316854
S315147006E0384601F58871FFF783FEB8F1000F7FF471
S315147006F04BAF91E73846FFF7A9FE18E70D20FFF7C1
S31514700700CFFD33680146D3F848233846FFF77AFE8F
S3151470071033684FF0FF32D3F860337A6405A898477C
S3151470072004F0405B47E743F0400303994DE7804676
S3151470073072E73168384601F58871FFF759FEB3E7E9
S31514700740984669E7EC20081038B5144C1449236898
S31514700750B3F84423002312040546FFF7CFFE10F4B2
S31514700760807318D12168D1F81021C2F34322032A59
S3151470077005D0042A0CBF00204FF0FF3038BDB1F8F5
S315147007804423084912042846FFF7B8FE003018BFF0
S315147007900120404238BD4FF0FF3038BDEC200810B0
S315147007A00D0000100700001010B5094C0949236894
S315147007B0B3F8442300231204FFF7A0FEC3055BBFEE
S315147007C02368D3F810014FF0FF30C0F3432010BDE7
S315147007D0EC2008100D0000102DE9F84F0027C34CBB
S315147007E0C34E87610D46C1F848433A4604234FF405
S315147007F0A00135608046FFF781FEBE4DDFF81CB34D
S31514700800A246B9463C46B9F1110F3CD8DFE819F047
S315147008102301E600F200480014000901FD0072007D
S315147008203B003B00CF00E600F200480012000901BD
S315147008306700720045F0804525F03F4525F4FF4565
S31514700840336825F07F054FF47A7401E0013C24D0A7
S31514700850D3F868330A20984700232A463946404607
S31514700860FFF74CFE3368D3F81021002AEEDAD3F86A
S31514700870401302F080420A4309F10109C3F8402378
S31514700880B9F1630FBFDD3368D3F8200100284FD157
S31514700890003018BF0120BDE8F88F09F10609EFE79B
S315147008A0002D19DA013C002C40F3F380336802E012
S315147008B0013C00F0EE80D3F868330A209847002381
S315147008C01A4639464046FFF719FE3368D3F8102195
S315147008D005F080451543EBD409F1010993E73368A4
S315147008E085490122A3F84423404600234FF48032ED
S315147008F0FFF704FE33688149B3F844234046002356
S315147009001204FFF7FBFD3368D3F81801C3F83801E6
S31514700910D3F82001D3F81051D3F81441D3F81C210D
S31514700920C3F83051C3F83441C3F83C210028AFD012
S31514700930D3F83851D3F840437149D3F83421C5F3F9
S315147009400340012707FA00F0A143C3F84C0300F0E3
S31514700950C480910F41EA8501C1F30B01C2F3C2320F
S31514700960B0F5007F01F1010102F1020201FA02F2FF
S31514700970C4BF400A424314F00104C3F8582306D185
S31514700980D3F83C21C2F38362032A00F2C980D3F8E8
S315147009905823D10D5202C3F85413C3F8502340464A
S315147009A0FFF7D2FE002877D00020BDE8F88F3268A2
S315147009B0544FD2F8403323F00103C2F840334FF446
S315147009C0A001042300224046FFF798FD336845F0D2
S315147009D08045C3F848A34FF00B09322400231A46F6
S315147009E039464046FFF78AFDC2057FF575AF09F1A2
S315147009F0090908E73368D3F8103105F080451D43AB
S31514700A003FF56AAF09F10209FDE600231A463A4921
S31514700A104046FFF773FD3368B3F81221A3F84423E5
S31514700A2068E700231A4659464046FFF767FD316852
S31514700A30D1F810E1D1F814C1D1F81801D1F81C31DC
S31514700A40C1F820E109F10109C1F824C1C1F82801DE
S31514700A50C1F82C31D7E600232B494FF4D572404692
S31514700A60FFF74CFDC105336805D493F81021AA2AF3
S31514700A7008BF45F08045D3F840232449C3F848137A
S31514700A8042F00102C3F84023214F4FF0010932247A
S31514700A90A4E709F10709B6E63368D3F84033DB07E0
S31514700AA00BD5034602221B494046FFF727FD002843
S31514700AB07FF47AAF0123C8F818304FF40072C8F86F
S31514700AC01C20404600231449FFF718FD00287FF4B4
S31514700AD06BAF3368D3F82001DAE6120C42EA05429A
S31514700AE0920202F58062C3F8582352E7002D310141
S31514700AF0EC2008100080FF0003001010090010206D
S31514700B0001000040010050300800101040787D013B
S31514700B10290090100600801010000010020010209A
S31514700B20B3F844231A49120423464046FFF7E6FCE9
S31514700B3031684FF40072C8F81C201346C8F8202088
S31514700B40404601F5A072FFF78DFC08232246114921
S31514700B504046FFF7D3FC4BF6C273184233687FF4E2
S31514700B6016AF93F80022012A84BFD3F81422C3F85F
S31514700B70582393F80422012A05D00749D3F8582329
S31514700B80C3F8481305E7054AC3F84823FFE600BFC0
S31514700B90070000100800181080BA8C01007519032C
S31514700BA02DE9F843171E09DBDFF878801E46D8F84E
S31514700BB00030D3F85833F2199A4203D900242046D8
S31514700BC0BDE8F88389460546FFF7BEFD044600283E
S31514700BD0F4D1D8F80010D1F840334FEA46285B00A8
S31514700BE04A4643462846C5F8208058BF7F02FFF709
S31514700BF039FC012E0CBF094909493A46082328467F
S31514700C00FFF77CFC002808BF44462846FFF7CCFD46
S31514700C100428FAD12046BDE8F88300BF11000810E5
S31514700C2012000811EC200810002A70B44FF0000658
S31514700C300FDD0C4600234569AD0605D5013314F84E
S31514700C40015B05609A42F6DCD21A002A1E441944D6
S31514700C50EFDC304670BC704708B503682BB11A7850
S31514700C601AB18288D988914201D0092008BD587862
S31514700C7000F038FC10F0010F14BF0320002008BDDB
S31514700C8038B50A4604460D46012300F1240140780E
S31514700C9000F010FC08B9256238BD012038BD00BFBC
S31514700CA010B504460A46407804F12401012300F075
S31514700CB001FCD0B994F8231294F822324AF65522CC
S31514700CC043EA012393420ED1D4F85A30084A23F0DA
S31514700CD07F43934206D0D4F8760020F07F40801A72
S31514700CE018BF012010BD022010BD032010BD00BF17
S31514700CF046415400F8B50378022B07460C4652D079
S31514700D00032B30D0012B02D04FF0FF30F8BD43695E
S31514700D10D0F820C001EB510603EB5621614507D07C
S31514700D2031B1FFF7ADFF0028EED17B69D7F820C03B
S31514700D30C6F3080201363A4403EB5621614592F81C
S31514700D40245005D021B13846FFF79AFF0028DBD11D
S31514700D50C6F308063E44E30796F8240045EA0020D5
S31514700D6037D50009F8BD4169036A01EBD41199426C
S31514700D7004D019B1FFF784FF0028C5D1A40004F478
S31514700D80FE7404F124033B443C449878D97894F85F
S31514700D9024205B78000440EA0160104340EA032083
S31514700DA020F07040F8BD4169036A01EB1421994231
S31514700DB004D019B1FFF764FF0028A5D1640004F4B8
S31514700DC0FF743C4494F8253094F8240040EA0320C8
S31514700DD0F8BDC0F30B00F8BD816838B501294FF022
S31514700DE00003C38017D00368DA68914213D2A1B195
S31514700DF09C7824BB01290ED98A4204460BD918460D
S31514700E00FFF778FF431C014625D0012803D92368C0
S31514700E10DA689042F3D3022038BD197803290AD0C0
S31514700E201A890021C160002AF5D09A6902612433A7
S31514700E304361002038BD99690029D9D1F0E7023A87
S31514700E408D1E954238BFDA69C16034BF05FB042420
S31514700E5000240461EBE7012038BD00BF48B9064B86
S31514700E601A6802B1107009B100220A701960002054
S31514700E7070470B20704700BFF02008102DE9F04F13
S31514700E808BB000286CD0002303600B78303B092B91
S31514700E9088461646054614D9C24B1C68002C00F0B9
S31514700EA0D98103942378ABB90020208000F0E0FA3E
S31514700EB010F0010757D04FF0030948460BB0BDE840
S31514700EC0F08F4A783A2AE7D1002B40F0F88101F175
S31514700ED00208E1E7607800F005FBC107E4D498F8DE
S31514700EE00030CDF824D02F2B00F0C1805C2B00F08D
S31514700EF0BE8000221F2B059240F2CD816F460DF1F4
S31514700F000B0CDFF8A8B201E018F8013F2F2BFBD0B9
S31514700F105C2BF9D03B46202203F8012B9C45FBD160
S31514700F2000210846894608F1FF344FF0080A14F870
S31514700F30013F202B00F1010040F2B6812F2B00F0F7
S31514700F40D8805C2B00F0D5802E2B00F09D808A45BE
S31514700F5000F2A6804FF0060948460BB0BDE8F08F34
S31514700F604FF00909A9E739462046FFF799FE01287B
S31514700F7000F08280032800F0B980002840F0818048
S31514700F8094F8302094F82F3043EA0223B3F5007F97
S31514700F9077D194F83B1094F83A3094F83400E070A2
S31514700FA053EA012318BF194600F1FF3308BFA16C29
S31514700FB02161012B65D894F83120A270002A60D073
S31514700FC0531E13425DD194F8363094F835E04EEAD8
S31514700FD0032E1EF00F0FA4F808E052D194F838C0FF
S31514700FE094F8373094F832B053EA0C2394F833C02B
S31514700FF008BF636C5BEA0C2B43D001FB00F00BEB60
S315147010001E1C84449C453CD8A3EB0C03B3FBF2F230
S31514701010002A36D040F6F5794FF6F57ABC444A452F
S315147010208CBF4FF002094FF001095F44931C52456F
S31514701030E360C4F81CC0676140F24B81BEF1000FC7
S315147010401FD1226DA2619B004FF0030903F2FF13A7
S31514701050B1EB532F15D3544984F800900B88013390
S315147010609BB200220B80E3802262227137E798F8D4
S31514701070013008F101083CE794F8E631002B40F092
S3151470108021814FF00D0918E7BAF1080F7FF462AF9A
S315147010904FEA890951465FFA89F94FF00B0A46E708
S315147010A01A0604D5803B49F003091BF80330222B2A
S315147010B03FF450AFDFF8F8C02A2293423FF44AAF98
S315147010C01CF8012F002AF8D1A3F14102192A04D869
S315147010D049F002097B54013129E7A3F16102192AF7
S315147010E0F8D8203BDBB249F00109F3E74FF0010958
S315147010F0E3E68044002300293FF42CAF3A78E52ABE
S3151470110004BF05223A70BAF1080F00F0D38009F0C3
S315147011100302012A01D143F0100309F00C09B9F145
S31514701120040F08BF43F00803FB7203A8FFF754FEBD
S31514701130814600285DD103980799036A8B4201D0C2
S31514701140002951D1089C2278002A56D094F80BA005
S315147011501AF0080F2ED1099F204607F10B0C3B4647
S3151470116001E010F8012F13F8011B914222D19C450E
S31514701170F7D1FB7A5A0770D41AF0100F00F09780D3
S31514701180039AE17E1278A37E032A43EA012305D1DA
S31514701190617D227D42EA012243EA0243059398F85F
S315147011A00030B3E6F0200810F4200810EC1A08107A
S315147011B06D1B0810BDF812400134A4B2ECB1079936
S315147011C0D9B114F00F0A039806D1069A0131079112
S315147011D0D2B90389A34210D900F1240303EB4A133D
S315147011E0ADF812400893A8E7FFF74AFD0028A9D076
S315147011F08146B9F1040F7FF460AE099BDB7A5B0705
S3151470120055D54FF0040958E68378013B13EA141345
S31514701210E2D1012A1BD9C3689A4218D21146FFF734
S3151470122069FD0128034612D9411C3FF45FAF039838
S31514701230C2689342E1D2991E023A914206933BBF19
S315147012408278C369002101FB02310791C4E74FF01C
S31514701250020932E64FF00C092FE61AF0100FD0D1AE
S3151470126006F00106039AAE711178E07EA37E032907
S3151470127043EA002305D1607D217D41EA002143EACA
S3151470128001432B61E369D188EB6000232A60A9803E
S31514701290AB60AB6111E603A8FFF79EFD002814BF7F
S315147012A081464FF0060908E68044042323E74FF07D
S315147012B0050902E64FEA89095FFA89F92DE74FF0B5
S315147012C00B09FAE5D4F8EA7120463946FFF7E8FCBB
S315147012D050E6BEF1000F3FF4D4AE0744B9F1020FD5
S315147012E0A76108D003EB430203F0010303EB520327
S315147012F04FF00109AAE65B00A8E600BF2DE9F04F8E
S315147013009846002383B0C8F800300E4691460446BA
S31514701310FFF7A2FC0746002842D1A3791D0600F1F7
S315147013208780D80740F18980D4E90225AD1A4D45D6
S3151470133028BF4D46002D33D004F11C09C2F308039F
S31514701340002B41D120688378013B03EA522313F0B2
S31514701350FF0358D06269C168023A02398A4278D258
S3151470136090F802C0C1690CFB0212002A71D05FEAB0
S31514701370552B03EB020A17D003EB0B02624588BF99
S31514701380ACEB030B524640785FFA8BF3314600F0A0
S3151470139091F8002856D0A37963F07F03A3710127BF
S315147013A0384603B0BDE8F08FA369534507D040782B
S315147013B001235246494600F07DF80028EBD1A36804
S315147013C0C4F818A0C3F30803C3F5007BAB4503F147
S315147013D01C0328BFAB46234403EB0B00721E13F891
S315147013E0011B02F8011F8342F9D1A2685E44A5EB72
S315147013F00B05D8F800305A445B44A260C8F8003024
S31514701400002D9BD1CCE78AB16169012921D9C268B3
S31514701410019391421DD2FFF76DFC019B0246012A7E
S3151470142017D9511CB7D02068626194E72269F6E720
S315147014300227384603B0BDE8F08F0727384603B045
S31514701440BDE8F08F4FEA4B2B5E44A5EB0B05A268F3
S31514701450CFE7A37963F07F03A3710227A0E700BFD8
S3151470146010B50446FFF7F8FB00B9206010BD00BF35
S3151470147040B938B50C4C2378DBB2012B04D02078E4
S31514701480C0B238BD01207047084A094D2370114601
S315147014904FF040202A60FFF79FF90028EFD0237889
S315147014A003F0FE032370EAE7901C08104835081001
S315147014B0F820081078B910B55BB109480078C007E0
S315147014C00BD44FF04020FFF76BFBB0FA80F0400955
S315147014D010BD042010BD04207047032010BD00BF3A
S315147014E0901C081018B9034B1878C0B270470120B5
S315147014F0704700BF901C08100C4B0D491B680D4AA1
S31514701500A1FB0313D1689B0900FB0310814205D01C
S31514701510002804DB074AD3688342FCDB7047002932
S31514701520F8DDD3689842FCD8704700BF4035081070
S31514701530D34D621000000C4030B4074B074C006852
S315147015404FF0402140220025C3F88021256048625F
S3151470155030BC1A60704700BF00E100E03C350810DB
S31514701560054A1368002BFCD04FF040230022586CA8
S3151470157058645A62704700BF3C3508100349044BCF
S3151470158040200122C1F880001A60704700E100E023
S315147015903C350810704700BF10B5044600F0F8F9D2
S315147015A021460246BDE810400148FFF73DBB00BF17
S315147015B0001008404FF0E0220E499368102023F073
S315147015C0020393600A46C861D369D906FCD40A48E3
S315147015D010600A4B0749A520D0605360CB699B07EE
S315147015E0FCD4074B8B614FF0E022936843F00203EF
S315147015F0936070470030004000010160000093EB67
S315147016000000D3EB2A4B20F47F622DE9F04122F0CF
S315147016100F0200264FF0C465DE60C0F389049A6029
S3151470162018465D60C3699D07FCD44FF00253204A77
S315147016304360D3699807FCD41E4B1D485360C36925
S3151470164013F00203FBD11C48194F0278DFF86CE0D3
S31514701650DFF860C0C4EB84751E4601EB85054FF048
S31514701660C468C7F80480FA699207FCD4C7F804E012
S3151470167003F14002A342A4BF55F82310016003F18D
S315147016800103B8BF06609342F4D1FB699907FCD481
S31514701690C7F804C0FB699B07FCD40378BB68B2F522
S315147016A0806F03F58073BB601346DAD1BDE8F081A1
S315147016B0003000400040200514300040008188320C
S315147016C02DE9F043704B714E714C724F0FCB85B040
S315147016D06D4685E80F009DF800109DF80130BDF831
S315147016E00200BDF8062003EB4113BDF80A1046F844
S315147016F023009DF804009DF8053003EB4013BDF8E4
S315147017000E0046F823209DF808309DF8092002EB48
S31514701710431242F20C0346F822109DF80C109DF8F1
S315147017200D2002EB411242F2140146F82200E258DF
S3151470173042F48052E250E25842F40052E250E258B7
S3151470174042F48042E2506358002643F0806363503B
S3151470175084F86C6084F86D6084F86E6084F8BA608E
S31514701760FEF7F6FC314638464FF45C7200F0BAF860
S3151470177049494A4A4A4BC7F860134FF04020C7F894
S315147017806423C7F86833FEF7E3FD4648FFF704FF92
S3151470179062B6454B45494022C3F8802030461A60DC
S315147017A0FFF75CFB4248FFF7F7FE012241494248B6
S315147017B0FFF764FB002858D14048FFF7EDFE404808
S315147017C0FFF7EAFE3F4B404A1A601022DA61DA6973
S315147017D0D206FCD44FF0FF323C493A489A60DA602C
S315147017E05960C36913F00203FBD1394FDFF8C8800F
S315147017F0274E1C464FF0A05919E0009B48460134F9
S31514701800002B3DD0FFF7FEFEE3B203F00100C3F3E5
S315147018104001C3F38002C3F3C00386F86C0009F564
S31514701820805986F86D1086F86E2086F8BA30394667
S315147018302B464FF480524046FFF760FD3946002818
S31514701840DBD0FFF7B7FE2348FFF7A6FE00BE1A4893
S31514701850FFF706FE2048FFF79FFE41F28830FFF728
S315147018604BFE1E4B01221A60FEE71D48FFF794FECD
S3151470187041F28830FFF740FE184B01221A609BE73D
S31514701880FFF798FEE3E700BF7C1B08100060084062
S3151470189000400F40483508102914081051140810C8
S315147018A0E9130810941B081000E100E0FC300810CE
S315147018B0B01B0810D81B081020330810FC1B081016
S315147018C0041C081000300040E8030F600000A4FFE9
S315147018D0FC200810581C08102C1C081000310540E8
S315147018E0E41B0810F0B4860743D0541E002A3ED069
S315147018F0CAB2034602E014F1FF3438D303F8012B4D
S315147019009D07F8D1032C2BD9CDB245EA05250F2C9A
S3151470191045EA054516D9A4F110073F0903F12006C7
S3151470192006EB071603F1100242E9045542E9025513
S315147019301032B242F8D104F00F040137032C03EBC2
S3151470194007130DD91E462246043A032A46F8045B39
S31514701950FAD8221F22F003020432134404F003044B
S315147019602CB1C9B21C4403F8011B9C42FBD1F0BCC8
S31514701970704714460346C5E70000000000000000D7
S3151470198000000000000000000000000000000000CD
S3151470199090F800F06DE9024520F007016FF0000C25
S315147019A010F0070491F820F040F049804FF00004CD
S315147019B06FF00700D1E9002391F840F000F10800A8
S315147019C082FA4CF2A4FA8CF283FA4CF3A2FA8CF3E0
S315147019D04BBBD1E9022382FA4CF200F10800A4FA47
S315147019E08CF283FA4CF3A2FA8CF3E3B9D1E904239B
S315147019F082FA4CF200F10800A4FA8CF283FA4CF3D2
S31514701A00A2FA8CF37BB9D1E9062301F1200182FA8B
S31514701A104CF200F10800A4FA8CF283FA4CF3A2FA91
S31514701A208CF3002BC6D0002A04BF04301A4612BA9F
S31514701A30B2FA82F2FDE8024500EBD2007047D1E9A2
S31514701A40002304F00305C4F100004FEAC50514F031
S31514701A50040F91F840F00CFA05F562EA05021CBF02
S31514701A6063EA050362464FF00004A9E7024B13B10B
S31514701A70024800F005B87047000000007D19081080
S31514701A80002301461A46184600F01EB838B50A4C9B
S31514701A900A4D641BA4100AD004F18043013B05EB74
S31514701AA08305013C55F804399847002CF9D1BDE8E3
S31514701AB0384000F06DB900BF00000000000000004F
S31514701AC0704700BF704700BF2DE9F8432B4D06468B
S31514701AD0286898460F469146FFF7F2FF284B1C6804
S31514701AE0D4F84831002B3DD05A681F2A0DDC02F108
S31514701AF0010C16BB0232C3F804C0286843F822706E
S31514701B00FFF7E0FF0020BDE8F8831E4B7BB34FF45C
S31514701B10C870AFF30080034648B3D4F84821002147
S31514701B20C0E900214FF0010CC4F848010A46C0F808
S31514701B308811C0F88C11002EDCD003EB82010124BD
S31514701B40C1F88890D3F8880194402043022EC3F8C4
S31514701B508801C1F80881CDD1D3F88C110C43C3F820
S31514701B608C41C7E704F5A673C4F84831BCE72868F6
S31514701B70FFF7A8FF4FF0FF30C5E700BFC02008106D
S31514701B80681C081000000000030F0F0FFF00000000
S31514701B90000005000A0020002400090040004000DF
S31514701BA005006000A6000400C000C3000200E00037
S31514701BB0E00001000001000103002001200106006D
S31514701BC0400140010C004201420119006201620198
S31514701BD01300820182011200A201A2011100C20136
S31514701BE0C2011000E201E2010F00020202020E00AD
S31514701BF0220222020D00230223021C00809A9041B5
S31514701C008E418F804545454949498E8F9092924FA2
S31514701C10994F555559999A9B9C9D9E9F41494F55DD
S31514701C20A5A5A6A7A8A9AAABAC21AEAFB0B1B2B3FD
S31514701C30B4B5B6B7B8B9BABBBCBDBEBFC0C1C2C362
S31514701C40C4C5C6C7C8C9CACBCCCDCECFD0D1D2D352
S31514701C50D4D5D6D7D8D9DADBDCDDDEDFE0E1E2E342
S31514701C60E4E5E6E7E8E9EAEBECEDEEEFF0F1F2F332
S31514701C70F4F5F6F7F8F9FAFBFCFDFEFF222A2B2C85
S31514701C803A3B3C3D3E3F5B5D7C7F00000704580049
S31514701C9007055800070658000B065C000000000084
S31514701CA0001BB7005374616E64616C6F6E65206649
S31514701CB06C617368206C6F616465720A0000000051
S31514701CC04F70656E696E6720666C6173686D652E8C
S31514701CD062696E2066726F6D20534420436172641C
S31514701CE02E2E2E0A00000000666C6173686D652EC8
S31514701CF062696E006E6F20666C6173686D652E62B4
S31514701D00696E20666F756E640D0A0000446F6E6599
S31514701D102E0D0A00466C617368696E6720636F6E68
S31514701D2074656E7473206F6620666C6173686D6506
S31514701D302E62696E2E2E2E0D0A000000466C61738B
S31514701D406820636F6D706C657465642E205265625D
S31514701D506F6F74696E6720696E2035207365636F53
S31514701D606E64730D0A000000466C617368204661D8
S31514701D70696C65642E0D0A00981C0810F8B500BFBE
S31514701D80F8BC08BC9E4670475D19081025000810EB
S31114701D90F8B500BFF8BC08BC9E4670473E
S31514701D9C01FFFFFFFFFFFFFF00000000841F0810F8
S31514701DACEC1F0810542008100000000000000000EE
S31514701DBC000000000000000000000000000000008D
S31514701DCC000000000000000000000000000000007D
S31514701DDC000000000000000000000000000000006D
S31514701DEC000000000000000000000000000000005D
S31514701DFC000000000000000000000000000000004D
S31514701E0C000000000000000000000000000000003C
S31514701E1C000000000000000000000000000000002C
S31514701E2C000000000000000000000000000000001C
S31514701E3C000000000000000000000000000000000C
S31514701E4C01000000000000000E33CDAB34126DE6A9
S31514701E5CECDE05000B000000000000000000000012
S31514701E6C00000000000000000000000000000000DC
S31514701E7C00000000000000000000000000000000CC
S31514701E8C00000000000000000000000000000000BC
S31514701E9C00000000000000000000000000000000AC
S309147021CCB83808107D
S705147000294D
